{
  "contractName": "CharityDonationCampaign",
  "abi": [
    {
      "inputs": [
        {
          "internalType": "address",
          "name": "_tokenAddress",
          "type": "address"
        }
      ],
      "stateMutability": "nonpayable",
      "type": "constructor"
    },
    {
      "anonymous": false,
      "inputs": [
        {
          "indexed": false,
          "internalType": "uint256",
          "name": "campaignId",
          "type": "uint256"
        },
        {
          "indexed": false,
          "internalType": "uint256",
          "name": "goal",
          "type": "uint256"
        },
        {
          "indexed": false,
          "internalType": "address",
          "name": "beneficiary",
          "type": "address"
        },
        {
          "indexed": false,
          "internalType": "address",
          "name": "organizationBeneficiary",
          "type": "address"
        }
      ],
      "name": "CampaignCreated",
      "type": "event"
    },
    {
      "anonymous": false,
      "inputs": [
        {
          "indexed": false,
          "internalType": "uint256",
          "name": "campaignId",
          "type": "uint256"
        },
        {
          "indexed": false,
          "internalType": "address",
          "name": "contributor",
          "type": "address"
        },
        {
          "indexed": false,
          "internalType": "uint256",
          "name": "amount",
          "type": "uint256"
        }
      ],
      "name": "ContributionReceived",
      "type": "event"
    },
    {
      "anonymous": false,
      "inputs": [
        {
          "indexed": false,
          "internalType": "uint256",
          "name": "campaignId",
          "type": "uint256"
        },
        {
          "indexed": false,
          "internalType": "address",
          "name": "beneficiary",
          "type": "address"
        },
        {
          "indexed": false,
          "internalType": "uint256",
          "name": "totalRaised",
          "type": "uint256"
        }
      ],
      "name": "FundsTransferred",
      "type": "event"
    },
    {
      "inputs": [
        {
          "internalType": "address",
          "name": "_address",
          "type": "address"
        }
      ],
      "name": "isValidAddress",
      "outputs": [
        {
          "internalType": "bool",
          "name": "",
          "type": "bool"
        }
      ],
      "stateMutability": "pure",
      "type": "function",
      "constant": true
    },
    {
      "inputs": [
        {
          "internalType": "uint256",
          "name": "_value",
          "type": "uint256"
        }
      ],
      "name": "isPositiveValue",
      "outputs": [
        {
          "internalType": "bool",
          "name": "",
          "type": "bool"
        }
      ],
      "stateMutability": "pure",
      "type": "function",
      "constant": true
    },
    {
      "inputs": [
        {
          "internalType": "string",
          "name": "_name",
          "type": "string"
        },
        {
          "internalType": "uint256",
          "name": "_goal",
          "type": "uint256"
        },
        {
          "internalType": "address",
          "name": "_beneficiary",
          "type": "address"
        },
        {
          "internalType": "address",
          "name": "_organizationBeneficiary",
          "type": "address"
        }
      ],
      "name": "createCampaign",
      "outputs": [],
      "stateMutability": "nonpayable",
      "type": "function"
    },
    {
      "inputs": [
        {
          "internalType": "uint256",
          "name": "_campaignId",
          "type": "uint256"
        },
        {
          "internalType": "uint256",
          "name": "_amount",
          "type": "uint256"
        }
      ],
      "name": "donate",
      "outputs": [],
      "stateMutability": "nonpayable",
      "type": "function"
    },
    {
      "inputs": [
        {
          "internalType": "uint256",
          "name": "_campaignId",
          "type": "uint256"
        }
      ],
      "name": "withdrawFunds",
      "outputs": [],
      "stateMutability": "nonpayable",
      "type": "function"
    },
    {
      "inputs": [],
      "name": "getAllCampaigns",
      "outputs": [
        {
          "components": [
            {
              "internalType": "string",
              "name": "name",
              "type": "string"
            },
            {
              "internalType": "uint256",
              "name": "goal",
              "type": "uint256"
            },
            {
              "internalType": "address",
              "name": "beneficiary",
              "type": "address"
            },
            {
              "internalType": "address",
              "name": "organizationBeneficiary",
              "type": "address"
            },
            {
              "internalType": "uint256",
              "name": "totalRaised",
              "type": "uint256"
            },
            {
              "internalType": "bool",
              "name": "isActive",
              "type": "bool"
            }
          ],
          "internalType": "struct CharityDonationCampaign.Campaign[]",
          "name": "",
          "type": "tuple[]"
        }
      ],
      "stateMutability": "view",
      "type": "function",
      "constant": true
    },
    {
      "inputs": [
        {
          "internalType": "uint256",
          "name": "_campaignId",
          "type": "uint256"
        }
      ],
      "name": "getCampaignContributions",
      "outputs": [
        {
          "components": [
            {
              "internalType": "address",
              "name": "contributor",
              "type": "address"
            },
            {
              "internalType": "uint256",
              "name": "amount",
              "type": "uint256"
            }
          ],
          "internalType": "struct CharityDonationCampaign.Contribution[]",
          "name": "",
          "type": "tuple[]"
        }
      ],
      "stateMutability": "view",
      "type": "function",
      "constant": true
    },
    {
      "inputs": [],
      "name": "getTotalCampaigns",
      "outputs": [
        {
          "internalType": "uint256",
          "name": "",
          "type": "uint256"
        }
      ],
      "stateMutability": "view",
      "type": "function",
      "constant": true
    }
  ],
  "bytecode": "0x60a060405234801561000f575f5ffd5b50604051612097380380612097833981810160405281019061003191906100c9565b8073ffffffffffffffffffffffffffffffffffffffff1660808173ffffffffffffffffffffffffffffffffffffffff1681525050506100f4565b5f5ffd5b5f73ffffffffffffffffffffffffffffffffffffffff82169050919050565b5f6100988261006f565b9050919050565b6100a88161008e565b81146100b2575f5ffd5b50565b5f815190506100c38161009f565b92915050565b5f602082840312156100de576100dd61006b565b5b5f6100eb848285016100b5565b91505092915050565b608051611f846101135f395f81816102ef015261071a0152611f845ff3fe608060405234801561000f575f5ffd5b5060043610610085575f3560e01c806316f43dd41161005957806316f43dd4146101215780632caeecbe1461013f57806386cdf6041461015b578063d3b0c32c1461017957610085565b80623f07fa146100895780630745915d146100b95780630cdd53f6146100e9578063155dd5ee14610105575b5f5ffd5b6100a3600480360381019061009e9190610f9f565b6101a9565b6040516100b09190610fe4565b60405180910390f35b6100d360048036038101906100ce9190611030565b6101e1565b6040516100e09190610fe4565b60405180910390f35b61010360048036038101906100fe919061105b565b6101ec565b005b61011f600480360381019061011a9190611030565b610549565b005b610129610881565b60405161013691906110a8565b60405180910390f35b610159600480360381019061015491906111fd565b61088c565b005b610163610b7d565b604051610170919061144b565b60405180910390f35b610193600480360381019061018e9190611030565b610d3f565b6040516101a09190611540565b60405180910390f35b5f5f73ffffffffffffffffffffffffffffffffffffffff168273ffffffffffffffffffffffffffffffffffffffff1614159050919050565b5f5f82119050919050565b815f805490508110610233576040517f08c379a000000000000000000000000000000000000000000000000000000000815260040161022a906115ba565b60405180910390fd5b5f5f8481548110610247576102466115d8565b5b905f5260205f2090600602019050806005015f9054906101000a900460ff166102a5576040517f08c379a000000000000000000000000000000000000000000000000000000000815260040161029c9061164f565b60405180910390fd5b6102ae836101e1565b6102ed576040517f08c379a00000000000000000000000000000000000000000000000000000000081526004016102e4906116dd565b60405180910390fd5b7f000000000000000000000000000000000000000000000000000000000000000073ffffffffffffffffffffffffffffffffffffffff166323b872dd3330866040518463ffffffff1660e01b815260040161034a9392919061170a565b6020604051808303815f875af1158015610366573d5f5f3e3d5ffd5b505050506040513d601f19601f8201168201806040525081019061038a9190611769565b6103c9576040517f08c379a00000000000000000000000000000000000000000000000000000000081526004016103c0906117de565b60405180910390fd5b5f60015f8681526020019081526020015f205f3373ffffffffffffffffffffffffffffffffffffffff1673ffffffffffffffffffffffffffffffffffffffff1681526020019081526020015f20540361048c5760025f8581526020019081526020015f2033908060018154018082558091505060019003905f5260205f20015f9091909190916101000a81548173ffffffffffffffffffffffffffffffffffffffff021916908373ffffffffffffffffffffffffffffffffffffffff1602179055505b8260015f8681526020019081526020015f205f3373ffffffffffffffffffffffffffffffffffffffff1673ffffffffffffffffffffffffffffffffffffffff1681526020019081526020015f205f8282546104e79190611829565b9250508190555082816004015f8282546105019190611829565b925050819055507f865c884d49c8cecaef108efb20f7d282f26c0f9b0d24dd48e5592d4e02ec658d84338560405161053b9392919061185c565b60405180910390a150505050565b805f805490508110610590576040517f08c379a0000000000000000000000000000000000000000000000000000000008152600401610587906115ba565b60405180910390fd5b815f81815481106105a4576105a36115d8565b5b905f5260205f2090600602016003015f9054906101000a900473ffffffffffffffffffffffffffffffffffffffff1673ffffffffffffffffffffffffffffffffffffffff163373ffffffffffffffffffffffffffffffffffffffff1614610640576040517f08c379a000000000000000000000000000000000000000000000000000000000815260040161063790611901565b60405180910390fd5b5f5f8481548110610654576106536115d8565b5b905f5260205f20906006020190508060010154816004015410156106ad576040517f08c379a00000000000000000000000000000000000000000000000000000000081526004016106a49061198f565b60405180910390fd5b806005015f9054906101000a900460ff166106fd576040517f08c379a00000000000000000000000000000000000000000000000000000000081526004016106f49061164f565b60405180910390fd5b5f816005015f6101000a81548160ff0219169083151502179055507f000000000000000000000000000000000000000000000000000000000000000073ffffffffffffffffffffffffffffffffffffffff1663a9059cbb826003015f9054906101000a900473ffffffffffffffffffffffffffffffffffffffff1683600401546040518363ffffffff1660e01b815260040161079a9291906119ad565b6020604051808303815f875af11580156107b6573d5f5f3e3d5ffd5b505050506040513d601f19601f820116820180604052508101906107da9190611769565b610819576040517f08c379a0000000000000000000000000000000000000000000000000000000008152600401610810906117de565b60405180910390fd5b7fe90ae330e5aefc2a73ddff0dd88bcaf8f4a0629d6553a2a85b22cac3d5f4a19e84826002015f9054906101000a900473ffffffffffffffffffffffffffffffffffffffff1683600401546040516108739392919061185c565b60405180910390a150505050565b5f5f80549050905090565b610895836101e1565b6108d4576040517f08c379a00000000000000000000000000000000000000000000000000000000081526004016108cb90611a44565b60405180910390fd5b6108dd826101a9565b61091c576040517f08c379a000000000000000000000000000000000000000000000000000000000815260040161091390611ad2565b60405180910390fd5b610925816101a9565b610964576040517f08c379a000000000000000000000000000000000000000000000000000000000815260040161095b90611b60565b60405180910390fd5b8073ffffffffffffffffffffffffffffffffffffffff168273ffffffffffffffffffffffffffffffffffffffff16036109d2576040517f08c379a00000000000000000000000000000000000000000000000000000000081526004016109c990611bee565b60405180910390fd5b5f6040518060c001604052808681526020018581526020018473ffffffffffffffffffffffffffffffffffffffff1681526020018373ffffffffffffffffffffffffffffffffffffffff1681526020015f815260200160011515815250908060018154018082558091505060019003905f5260205f2090600602015f909190919091505f820151815f019081610a689190611e09565b50602082015181600101556040820151816002015f6101000a81548173ffffffffffffffffffffffffffffffffffffffff021916908373ffffffffffffffffffffffffffffffffffffffff1602179055506060820151816003015f6101000a81548173ffffffffffffffffffffffffffffffffffffffff021916908373ffffffffffffffffffffffffffffffffffffffff1602179055506080820151816004015560a0820151816005015f6101000a81548160ff02191690831515021790555050507f4a4a5e4e123d5b51c72ed84584a39d80fd2e282d37b34bfa8100c246b117724a60015f80549050610b5c9190611ed8565b848484604051610b6f9493929190611f0b565b60405180910390a150505050565b60605f805480602002602001604051908101604052809291908181526020015f905b82821015610d36578382905f5260205f2090600602016040518060c00160405290815f82018054610bcf90611c39565b80601f0160208091040260200160405190810160405280929190818152602001828054610bfb90611c39565b8015610c465780601f10610c1d57610100808354040283529160200191610c46565b820191905f5260205f20905b815481529060010190602001808311610c2957829003601f168201915b5050505050815260200160018201548152602001600282015f9054906101000a900473ffffffffffffffffffffffffffffffffffffffff1673ffffffffffffffffffffffffffffffffffffffff1673ffffffffffffffffffffffffffffffffffffffff168152602001600382015f9054906101000a900473ffffffffffffffffffffffffffffffffffffffff1673ffffffffffffffffffffffffffffffffffffffff1673ffffffffffffffffffffffffffffffffffffffff16815260200160048201548152602001600582015f9054906101000a900460ff16151515158152505081526020019060010190610b9f565b50505050905090565b6060815f805490508110610d88576040517f08c379a0000000000000000000000000000000000000000000000000000000008152600401610d7f906115ba565b60405180910390fd5b5f60025f8581526020019081526020015f208054905090505f8167ffffffffffffffff811115610dbb57610dba6110d9565b5b604051908082528060200260200182016040528015610df457816020015b610de1610f06565b815260200190600190039081610dd95790505b5090505f5f90505b82811015610efa575f60025f8881526020019081526020015f208281548110610e2857610e276115d8565b5b905f5260205f20015f9054906101000a900473ffffffffffffffffffffffffffffffffffffffff1690505f60015f8981526020019081526020015f205f8373ffffffffffffffffffffffffffffffffffffffff1673ffffffffffffffffffffffffffffffffffffffff1681526020019081526020015f2054905060405180604001604052808373ffffffffffffffffffffffffffffffffffffffff16815260200182815250848481518110610ee057610edf6115d8565b5b602002602001018190525050508080600101915050610dfc565b50809350505050919050565b60405180604001604052805f73ffffffffffffffffffffffffffffffffffffffff1681526020015f81525090565b5f604051905090565b5f5ffd5b5f5ffd5b5f73ffffffffffffffffffffffffffffffffffffffff82169050919050565b5f610f6e82610f45565b9050919050565b610f7e81610f64565b8114610f88575f5ffd5b50565b5f81359050610f9981610f75565b92915050565b5f60208284031215610fb457610fb3610f3d565b5b5f610fc184828501610f8b565b91505092915050565b5f8115159050919050565b610fde81610fca565b82525050565b5f602082019050610ff75f830184610fd5565b92915050565b5f819050919050565b61100f81610ffd565b8114611019575f5ffd5b50565b5f8135905061102a81611006565b92915050565b5f6020828403121561104557611044610f3d565b5b5f6110528482850161101c565b91505092915050565b5f5f6040838503121561107157611070610f3d565b5b5f61107e8582860161101c565b925050602061108f8582860161101c565b9150509250929050565b6110a281610ffd565b82525050565b5f6020820190506110bb5f830184611099565b92915050565b5f5ffd5b5f5ffd5b5f601f19601f8301169050919050565b7f4e487b71000000000000000000000000000000000000000000000000000000005f52604160045260245ffd5b61110f826110c9565b810181811067ffffffffffffffff8211171561112e5761112d6110d9565b5b80604052505050565b5f611140610f34565b905061114c8282611106565b919050565b5f67ffffffffffffffff82111561116b5761116a6110d9565b5b611174826110c9565b9050602081019050919050565b828183375f83830152505050565b5f6111a161119c84611151565b611137565b9050828152602081018484840111156111bd576111bc6110c5565b5b6111c8848285611181565b509392505050565b5f82601f8301126111e4576111e36110c1565b5b81356111f484826020860161118f565b91505092915050565b5f5f5f5f6080858703121561121557611214610f3d565b5b5f85013567ffffffffffffffff81111561123257611231610f41565b5b61123e878288016111d0565b945050602061124f8782880161101c565b935050604061126087828801610f8b565b925050606061127187828801610f8b565b91505092959194509250565b5f81519050919050565b5f82825260208201905092915050565b5f819050602082019050919050565b5f81519050919050565b5f82825260208201905092915050565b8281835e5f83830152505050565b5f6112d8826112a6565b6112e281856112b0565b93506112f28185602086016112c0565b6112fb816110c9565b840191505092915050565b61130f81610ffd565b82525050565b61131e81610f64565b82525050565b61132d81610fca565b82525050565b5f60c083015f8301518482035f86015261134d82826112ce565b91505060208301516113626020860182611306565b5060408301516113756040860182611315565b5060608301516113886060860182611315565b50608083015161139b6080860182611306565b5060a08301516113ae60a0860182611324565b508091505092915050565b5f6113c48383611333565b905092915050565b5f602082019050919050565b5f6113e28261127d565b6113ec8185611287565b9350836020820285016113fe85611297565b805f5b85811015611439578484038952815161141a85826113b9565b9450611425836113cc565b925060208a01995050600181019050611401565b50829750879550505050505092915050565b5f6020820190508181035f83015261146381846113d8565b905092915050565b5f81519050919050565b5f82825260208201905092915050565b5f819050602082019050919050565b604082015f8201516114a85f850182611315565b5060208201516114bb6020850182611306565b50505050565b5f6114cc8383611494565b60408301905092915050565b5f602082019050919050565b5f6114ee8261146b565b6114f88185611475565b935061150383611485565b805f5b8381101561153357815161151a88826114c1565b9750611525836114d8565b925050600181019050611506565b5085935050505092915050565b5f6020820190508181035f83015261155881846114e4565b905092915050565b5f82825260208201905092915050565b7f43616d706169676e20646f6573206e6f742065786973742e00000000000000005f82015250565b5f6115a4601883611560565b91506115af82611570565b602082019050919050565b5f6020820190508181035f8301526115d181611598565b9050919050565b7f4e487b71000000000000000000000000000000000000000000000000000000005f52603260045260245ffd5b7f43616d706169676e206973206e6f74206163746976652e0000000000000000005f82015250565b5f611639601783611560565b915061164482611605565b602082019050919050565b5f6020820190508181035f8301526116668161162d565b9050919050565b7f446f6e6174696f6e20616d6f756e74206d7573742062652067726561746572205f8201527f7468616e207a65726f2e00000000000000000000000000000000000000000000602082015250565b5f6116c7602a83611560565b91506116d28261166d565b604082019050919050565b5f6020820190508181035f8301526116f4816116bb565b9050919050565b61170481610f64565b82525050565b5f60608201905061171d5f8301866116fb565b61172a60208301856116fb565b6117376040830184611099565b949350505050565b61174881610fca565b8114611752575f5ffd5b50565b5f815190506117638161173f565b92915050565b5f6020828403121561177e5761177d610f3d565b5b5f61178b84828501611755565b91505092915050565b7f546f6b656e207472616e73666572206661696c65642e000000000000000000005f82015250565b5f6117c8601683611560565b91506117d382611794565b602082019050919050565b5f6020820190508181035f8301526117f5816117bc565b9050919050565b7f4e487b71000000000000000000000000000000000000000000000000000000005f52601160045260245ffd5b5f61183382610ffd565b915061183e83610ffd565b9250828201905080821115611856576118556117fc565b5b92915050565b5f60608201905061186f5f830186611099565b61187c60208301856116fb565b6118896040830184611099565b949350505050565b7f4f6e6c7920746865206f7267616e697a6174696f6e2063616e2063616c6c20745f8201527f6869732066756e6374696f6e2e00000000000000000000000000000000000000602082015250565b5f6118eb602d83611560565b91506118f682611891565b604082019050919050565b5f6020820190508181035f830152611918816118df565b9050919050565b7f43616d706169676e20686173206e6f7420726561636865642069747320676f615f8201527f6c2e000000000000000000000000000000000000000000000000000000000000602082015250565b5f611979602283611560565b91506119848261191f565b604082019050919050565b5f6020820190508181035f8301526119a68161196d565b9050919050565b5f6040820190506119c05f8301856116fb565b6119cd6020830184611099565b9392505050565b7f43616d706169676e20676f616c206d75737420626520677265617465722074685f8201527f616e207a65726f00000000000000000000000000000000000000000000000000602082015250565b5f611a2e602783611560565b9150611a39826119d4565b604082019050919050565b5f6020820190508181035f830152611a5b81611a22565b9050919050565b7f42656e656669636961727920616464726573732063616e6e6f74206265207a655f8201527f726f206164647265737300000000000000000000000000000000000000000000602082015250565b5f611abc602a83611560565b9150611ac782611a62565b604082019050919050565b5f6020820190508181035f830152611ae981611ab0565b9050919050565b7f4f7267616e697a6174696f6e2042656e656669636961727920616464726573735f8201527f2063616e6e6f74206265207a65726f2061646472657373000000000000000000602082015250565b5f611b4a603783611560565b9150611b5582611af0565b604082019050919050565b5f6020820190508181035f830152611b7781611b3e565b9050919050565b7f42656e656669636961727920616e64204f7267616e697a6174696f6e2042656e5f8201527f65666963696172792063616e6e6f74206265207468652073616d650000000000602082015250565b5f611bd8603b83611560565b9150611be382611b7e565b604082019050919050565b5f6020820190508181035f830152611c0581611bcc565b9050919050565b7f4e487b71000000000000000000000000000000000000000000000000000000005f52602260045260245ffd5b5f6002820490506001821680611c5057607f821691505b602082108103611c6357611c62611c0c565b5b50919050565b5f819050815f5260205f209050919050565b5f6020601f8301049050919050565b5f82821b905092915050565b5f60088302611cc57fffffffffffffffffffffffffffffffffffffffffffffffffffffffffffffffff82611c8a565b611ccf8683611c8a565b95508019841693508086168417925050509392505050565b5f819050919050565b5f611d0a611d05611d0084610ffd565b611ce7565b610ffd565b9050919050565b5f819050919050565b611d2383611cf0565b611d37611d2f82611d11565b848454611c96565b825550505050565b5f5f905090565b611d4e611d3f565b611d59818484611d1a565b505050565b5b81811015611d7c57611d715f82611d46565b600181019050611d5f565b5050565b601f821115611dc157611d9281611c69565b611d9b84611c7b565b81016020851015611daa578190505b611dbe611db685611c7b565b830182611d5e565b50505b505050565b5f82821c905092915050565b5f611de15f1984600802611dc6565b1980831691505092915050565b5f611df98383611dd2565b9150826002028217905092915050565b611e12826112a6565b67ffffffffffffffff811115611e2b57611e2a6110d9565b5b611e358254611c39565b611e40828285611d80565b5f60209050601f831160018114611e71575f8415611e5f578287015190505b611e698582611dee565b865550611ed0565b601f198416611e7f86611c69565b5f5b82811015611ea657848901518255600182019150602085019450602081019050611e81565b86831015611ec35784890151611ebf601f891682611dd2565b8355505b6001600288020188555050505b505050505050565b5f611ee282610ffd565b9150611eed83610ffd565b9250828203905081811115611f0557611f046117fc565b5b92915050565b5f608082019050611f1e5f830187611099565b611f2b6020830186611099565b611f3860408301856116fb565b611f4560608301846116fb565b9594505050505056fea2646970667358221220a46eab24e44a4ac8df8c94812f8f6a4a0db1e3d269eb943c8f788edf80af6f0d64736f6c634300081c0033",
  "immutableReferences": {
    "101": [
      {
        "length": 32,
        "start": 751
      },
      {
        "length": 32,
        "start": 1818
      }
    ]
  },
  "source": "// SPDX-License-Identifier: MIT\npragma solidity ^0.8.20;\n\nimport \"@openzeppelin/contracts/token/ERC20/IERC20.sol\";\n\ncontract CharityDonationCampaign {\n    // Structure to represent a campaign\n    struct Campaign {\n        string name; // Name of the campaign\n        uint256 goal; // Target amount to be raised (in token units)\n        address beneficiary; // Address of the beneficiary\n        address organizationBeneficiary; // Address of the organization beneficiary\n        uint256 totalRaised; // Total amount raised in the campaign (in token units)\n        bool isActive; // Status of the campaign (active/inactive)\n    }\n\n    // Structure to represent a contribution\n    struct Contribution {\n        address contributor;\n        uint256 amount;\n    }\n\n    // ERC20 Token used for donations (e.g., USDC or USDT)\n    IERC20 private immutable token;\n\n    // Array to store all campaigns\n    Campaign[] private campaignList;\n\n    // Nested mapping to track each user's contributions by campaign id\n    mapping(uint256 => mapping(address => uint256))\n    private campaignContributions;\n\n    // Mapping to store contributors for each campaign\n    mapping(uint256 => address[]) private campaignContributors;\n\n    // Events\n    event CampaignCreated(\n        uint256 campaignId,\n        uint256 goal,\n        address beneficiary,\n        address organizationBeneficiary\n    );\n    event ContributionReceived(\n        uint256 campaignId,\n        address contributor,\n        uint256 amount\n    );\n    event FundsTransferred(\n        uint256 campaignId,\n        address beneficiary,\n        uint256 totalRaised\n    );\n\n    // Modifiers\n    modifier onlyOrganization(uint256 _campaignId) {\n        require(\n            msg.sender == campaignList[_campaignId].organizationBeneficiary,\n            \"Only the organization can call this function.\"\n        );\n        _;\n    }\n\n    modifier campaignExists(uint256 _campaignId) {\n        require(_campaignId < campaignList.length, \"Campaign does not exist.\");\n        _;\n    }\n\n    constructor(address _tokenAddress) {\n        token = IERC20(_tokenAddress);\n    }\n\n    // Function to check if an address is valid\n    function isValidAddress(address _address) public pure returns (bool) {\n        return _address != address(0);\n    }\n\n    // Function to check if a value is greater than zero\n    function isPositiveValue(uint256 _value) public pure returns (bool) {\n        return _value > 0;\n    }\n\n    // Function to create a new campaign\n    function createCampaign(\n        string memory _name,\n        uint256 _goal,\n        address _beneficiary,\n        address _organizationBeneficiary\n    ) public {\n        require(\n            isPositiveValue(_goal),\n            \"Campaign goal must be greater than zero\"\n        );\n        require(\n            isValidAddress(_beneficiary),\n            \"Beneficiary address cannot be zero address\"\n        );\n        require(\n            isValidAddress(_organizationBeneficiary),\n            \"Organization Beneficiary address cannot be zero address\"\n        );\n        require(\n            _beneficiary != _organizationBeneficiary,\n            \"Beneficiary and Organization Beneficiary cannot be the same\"\n        );\n\n        campaignList.push(\n            Campaign({\n                name: _name,\n                goal: _goal,\n                beneficiary: _beneficiary,\n                organizationBeneficiary: _organizationBeneficiary,\n                totalRaised: 0,\n                isActive: true\n            })\n        );\n\n        emit CampaignCreated(\n            campaignList.length - 1,\n            _goal,\n            _beneficiary,\n            _organizationBeneficiary\n        );\n    }\n\n    // Function to donate to a specific campaign using ERC20 tokens\n    function donate(uint256 _campaignId, uint256 _amount)\n    public\n    campaignExists(_campaignId)\n    {\n        Campaign storage campaign = campaignList[_campaignId];\n        require(campaign.isActive, \"Campaign is not active.\");\n        require(\n            isPositiveValue(_amount),\n            \"Donation amount must be greater than zero.\"\n        );\n        require(\n            token.transferFrom(msg.sender, address(this), _amount),\n            \"Token transfer failed.\"\n        );\n\n        // Add the contributor to the list if not already present\n        if (campaignContributions[_campaignId][msg.sender] == 0) {\n            campaignContributors[_campaignId].push(msg.sender);\n        }\n\n        campaignContributions[_campaignId][msg.sender] += _amount;\n        campaign.totalRaised += _amount;\n\n        emit ContributionReceived(_campaignId, msg.sender, _amount);\n    }\n\n    // Function to withdraw funds from a campaign if the goal is met\n    function withdrawFunds(uint256 _campaignId)\n    public\n    campaignExists(_campaignId)\n    onlyOrganization(_campaignId)\n    {\n        Campaign storage campaign = campaignList[_campaignId];\n        require(\n            campaign.totalRaised >= campaign.goal,\n            \"Campaign has not reached its goal.\"\n        );\n        require(campaign.isActive, \"Campaign is not active.\");\n\n        campaign.isActive = false;\n        require(\n            token.transfer(\n                campaign.organizationBeneficiary,\n                campaign.totalRaised\n            ),\n            \"Token transfer failed.\"\n        );\n\n        emit FundsTransferred(\n            _campaignId,\n            campaign.beneficiary,\n            campaign.totalRaised\n        );\n    }\n\n    // Function to retrieve all campaigns\n    function getAllCampaigns() public view returns (Campaign[] memory) {\n        return campaignList;\n    }\n\n    // Function to retrieve contributions for a campaign\n    function getCampaignContributions(uint256 _campaignId)\n    public\n    view\n    campaignExists(_campaignId)\n    returns (Contribution[] memory)\n    {\n        uint256 contributorCount = campaignContributors[_campaignId].length;\n\n        // Create an array to store all contributions for the campaign\n        Contribution[] memory contributions = new Contribution[](\n            contributorCount\n        );\n\n        // Populate the array\n        for (uint256 i = 0; i < contributorCount; i++) {\n            address contributor = campaignContributors[_campaignId][i];\n            uint256 amount = campaignContributions[_campaignId][contributor];\n            contributions[i] = Contribution(contributor, amount);\n        }\n\n        return contributions;\n    }\n\n    // Function to get the total number of campaigns\n    function getTotalCampaigns() public view returns (uint256) {\n        return campaignList.length;\n    }\n}\n",
  "sourcePath": "/Volumes/data/blockchain/charity-donation/charity-donation-smart-contract/contracts/CharityDonationCampaign.sol",
  "compiler": {
    "name": "solc",
    "version": "0.8.28+commit.7893614a.Emscripten.clang"
  },
  "schemaVersion": "3.4.16",
  "updatedAt": "2024-11-24T03:47:14.032Z",
  "networkType": "ethereum",
  "devdoc": {
    "kind": "dev",
    "methods": {},
    "version": 1
  },
  "userdoc": {
    "kind": "user",
    "methods": {},
    "version": 1
  }
}